:1000000013C200002EC200002CC200002AC2000051
:1000100028C2000026C2000024C2000022C2000044
:1000200020C200001EC200000C9401210C94CD21BE
:100030000C94A21B16C2000014C2000012C20000E1
:1000400010C200000EC200000CC200000AC2000074
:1000500008C200000C94191C04C2000002C2000077
:1000600000C20000FEC10000FCC10000FAC1000097
:10007000F8C10000F6C10000F4C10000F2C10000A8
:10008000F0C10000EEC10000ECC10000EAC10000B8
:10009000E8C10000E6C10000E4C10000E2C10000C8
:1000A000E0C10000DEC10000DCC1000029001E002C
:1000B0001F002000210000000000000000000000E0
:1000C0002B0014001A0008001500000000000000BA
:1000D00000000000390004001600070009000000BD
:1000E0000000000000000000E1001D001B000600F1
:1000F00023520500000000001A000000000000006C
:100100000000000000002C000000040016000700A2
:1001100001000100010001000100000000000000DA
:1001200000000000010001000100010001000000CA
:1001300000000000000000000100010001000100BB
:1001400001000000000000000000000001000100AC
:10015000010001000100010000000000010000009A
:10016000000000000000000000000100000001008D
:100170000100010001000100010001000100000078
:10018000000000000000000001000100010001006B
:10019000010000000000000000000000010001005C
:1001A000010001000100000000000000000000004C
:1001B0000100010001000100010001000000000039
:1001C000010000000000000000000000000001002D
:1001D0000000010001000100007C7300010001002B
:1001E000010000000000000000000000010001000C
:1001F00001000100010000000000000000000000FC
:1002000001000100010001000100000000000000E9
:1002100000000000010001000100010001000100D8
:1002200000000000010000000000000000000000CD
:1002300000000100000001000100010000000000BA
:10024000000000002A2B2800000000000000000031
:100250000000000000000029000000002C1E3420D7
:10026000212224342627252E362D3738271E1F20FD
:100270002122232425263333362E37381F04050642
:100280000708090A0B0C0D0E0F1011121314151686
:100290001718191A1B1C1D2F3130232D3504050684
:1002A0000708090A0B0C0D0E0F1011121314151666
:1002B0001718191A1B1C1D2F3130354C0000000077
:1002C000000000000000000000000000000000002E
:1002D000000000000000000000000000000000001E
:1002E0007E0F00D4FFFFFFC7000000781A03540000
:1002F00061007200740061007200750073002000DC
:100300004D006F00640000001C0344007700610092
:10031000720066004B0069006E0067004B006900C8
:100320006C00690000000403090409025B0003017A
:1003300000A0FA09040000010301010009211101D4
:10034000000122440007058103080001090401009F
:10035000020300000009211101000122220007050B
:1003600082032000010705030320000109040200A5
:100370000103000000092111010001222A000705E4
:10038000840308000112010002000000084B440130
:10039000000001010200010660FF0961A10109627C
:1003A000150026FF009520750881020963150026B7
:1003B000FF00952075089102C005010904A101A163
:1003C000000501093009311581257F9502750881E5
:1003D00002050919012908150025019508750181F3
:1003E00002C0C005010906A101050719E029E715AA
:1003F00000250195087501810295017508810105A7
:1004000007190029FF150026FF00950675088100D1
:1004100005081901290515002501950575019102A9
:10042000950175039101C00011241FBECFEFDAE0E2
:10043000DEBFCDBF11E0A0E0B1E0E0E9F9E402C029
:1004400005900D92AE34B107D9F722E0AEE4B1E0E9
:1004500001C01D92A133B207E1F70E9414110C9460
:100460008024CECDCF93DF93A7E0B1E02BE031E045
:1004700041E050E08D91E82FE295EF70EF5DF0E004
:1004800060818F70EA0101C0CC0F8A95EAF78C2F4A
:10049000862B8083FD018291E82FE295EF70EE5D5F
:1004A000F0E060818F70EA0101C0CC0F8A95EAF715
:1004B0008C2F862B80832A173B07E1F6A2E0B1E060
:1004C00047E051E021E030E08D91E82FE295EF70B8
:1004D000EF5DF0E060818F70E90101C0CC0F8A957B
:1004E000EAF78C2F809586238083FD018291E82F87
:1004F000E295EF70EE5DF0E060818F70E90101C080
:10050000CC0F8A95EAF78C2F862B80834A175B07DE
:10051000D9F680910001E82FE295EF70EF5D408100
:100520008F70B90101C0660F8A95EAF7862F809512
:100530008423808380910001E82FE295EF70EE5DC7
:1005400040818F70B90101C0660F8A95EAF7862F46
:10055000842B808380910101E82FE295EF70EF5D9D
:1005600040818F70B90101C0660F8A95EAF7862F26
:1005700080958423808380910101E82FE295EF70BC
:10058000EE5D90818F7001C0220F8A95EAF7892F66
:10059000822B8083EAE0F2E08AE011928A95E9F703
:1005A000E0E0F2E08AE011928A95E9F743E050E05A
:1005B00064E070E08DEF91E00E9436248091FD01AF
:1005C000823489F082E48093FD0181E08093FE0112
:1005D00086E98093FF0143E050E064E070E08DEF36
:1005E00091E00E945324DF91CF910895CF93DF9340
:1005F00085EF0E94B01CEC0184EF0E94B01C9C01AE
:10060000E0910602F0910702CF019E7F80930602DF
:100610009093070240910802509109024F775C7F46
:1006200040930802509309028091FE018115D1F197
:100630008091FF0160E072E0681B710992E026176B
:100640003707F4F4F160E0930602F0930702C6174F
:10065000D707FCF480910802909109029260809380
:1006600008029093090260E070E080E00E940C12A2
:1006700060E070E081E00E940C12DF91CF9108955C
:100680008217930724F751604093080250930902A0
:10069000DECF8C179D073CF78091080290910902EC
:1006A0008068DDCFEFE740E0C138D10584F0E1E8B4
:1006B0004FEFC03883E0D80754F480E092E08C1B01
:1006C0009D0B63E070E00E946123E62F472FC0E09E
:1006D000DFE7203883E038076CF4CFEFD1E821382A
:1006E000310544F0C901925063E070E00E9461233B
:1006F000D62FC72F6E2F742F80E00E940C126D2F03
:100700007C2FB8CF8F929F92AF92BF92DF92EF92E1
:10071000FF920F931F93CF93DF9368DFA7E0B1E0C1
:1007200080E0882E82E0982EF40140E050E0D12C49
:1007300061E070E02D91022F02950F700E5D10E0C8
:10074000E80188812F70EB0101C0CC0F2A95EAF7F0
:100750002C2F20952823E801288380EA8A95F1F739
:1007600082E091E05C0100E09801E501F9905E0112
:100770008F2D82958F70805E90E0EC018881CF2D67
:10078000CF7002C095958795CA95E2F780FD09C0A4
:10079000CB01002E02C0880F991F0A94E2F7282B84
:1007A000392B0F5F1F4F05301105F9F64330510506
:1007B00041F48091FE01811521F090910702917022
:1007C000392BCD010197EC011881812F82958F7013
:1007D0008E5D90E0EC0108811F70E62E01C0EE0CEA
:1007E0001A95EAF7102F1E29188380EA8A95F1F7E7
:1007F000819191918217930739F0CF010297EC0113
:1008000028833983DD24D3944F5F5F4F44305105F3
:1008100009F090CF40910001E42FE295EF70E05E87
:10082000F0E02081809106029091070230E04F7045
:1008300002C0359527954A95E2F720FD40C08062B9
:10084000809306029093070240910101E42FE29504
:10085000EF70E05E8081209108023091090290E003
:100860004F7002C0959587954A95E2F780FD29C0A3
:1008700020622093080230930902EAE0F2E024E1CA
:1008800032E041915191D4018D919D914D014817D4
:10089000590729F0DF019E938E93DD24D3942E1700
:1008A0003F0779F78D2DDF91CF911F910F91FF9029
:1008B000EF90DF90BF90AF909F908F9008958F7DC5
:1008C000BFCF2F7DD6CFE82FF0E0EE0FFF1FE65F02
:1008D000FD4F8081918108950895FC0180818130D0
:1008E00051F0823059F481E09181911101C080E092
:1008F0008093FE01089581818093FF010895FC019A
:100900008081813031F0823019F48091FE01818341
:1009100008958091FF01FBCF43E050E064E070E078
:100920008DEF91E00C945324FC01818181110FC063
:100930009F012E5F3F4F9081983031F0993031F018
:10094000973039F4C901C9CFC901D9CFE5CF8FEFAD
:1009500080830895811105C08AED611101C089ED80
:10096000C8D180E008958430C8F46530B8F44A30C6
:10097000A8F450E09AE0699F400D511D112492E3C4
:10098000899F400D511D1124FA01EE0FFF1FE45500
:10099000FF4F85919591282F822F089521E090E0B7
:1009A000FBCF81E0089581E00895FBCF089581E0B9
:1009B000089581E00895FDCF089508950895FDCF2D
:1009C000089508950895A6E0B0E0E9EEF4E00C94EF
:1009D000DE2349835A839E833091550189819A8110
:1009E000311117C03E81311589F0211579F07FD47E
:1009F000182F682F89819A8159D469817A81812F32
:100A00000E94740F2696E3E00C94FA2360D4182F0A
:100A1000F4CF6DD469817A81F3CFFC01262F408118
:100A200051816281738184819581CDCFCF93DF9392
:100A3000EC0161E0F2DFBE01B6DF811529F061E073
:100A4000CE01EBDFBE01B1DFDF91CF9108950F93AF
:100A50001F93CF93DF93EC0160E0DFDF8C01BE01D9
:100A6000ADDFBE01C801ABDFDF91CF911F910F91C8
:100A700008950F931F93CF93DF93EC0161E0CDDFD7
:100A80008C01BE0194DF811106C080E0DF91CF911F
:100A90001F910F910895BE01C8018DDF8115A9F343
:100AA000BE01C8010E942619811579F3BE01C80153
:100AB0000E946518811549F3BE01C8010E942716DE
:100AC000811519F3BE01C8010E94FE158115E9F2D6
:100AD000BE01C8010E942F118115B9F2BE01C801E3
:100AE0000E94A518811589F2BE01C8010E947610E6
:100AF000811559F2BE01C8010E948810811529F2A2
:100B0000BE01C8010E94A210C1CF91E001C0990F9F
:100B10008A95EAF7892F29C3CF93C82F81E00C2E3D
:100B200001C0880F0A94EAF7F4D78C2FEEDFCF913B
:100B3000089581E0089581E00895FBCF0895CF9353
:100B4000C82FC4D28C2FF7DF8C2FF7DF8FEF94E301
:100B50002CE0815090402040E1F700C00000CF9190
:100B6000089581E0ECDF0C943D1C80E0E8DF0C94FC
:100B70004E1C27DF0E943B1B17C018D023DF0C94AC
:100B80003F1B81E008950895CF93DF93D82FF9DFBD
:100B9000C82F811511F08D2FF6DF8C2FDF91CF91AB
:100BA00008950895F1CF089580E0FCCF0E94371A90
:100BB000F9CFCF930E94371AC82F809150018C171C
:100BC00071F0C09350010E940D1C6093510170930D
:100BD000520180935301909354018C2FE3DFCF9106
:100BE0000895ADE0B0E0E7EFF5E00C94DF2348872F
:100BF00059876A877B878C879D879111A1D61F8231
:100C000086E0FE0138969E012F5F3F4FD90101908B
:100C10000D928A95E1F78D8181110CC029813A816D
:100C20004B815C816D817E818F81D5D52D96E2E0EF
:100C30000C94FB23CE010196F9DE8111EFCFF6CFA4
:100C4000FC012481213019F4808191817CC30895B5
:100C5000CF93C82F811581F08450813A78F48C2F7E
:100C60000E948E1A811521F08C2F0E94D01AD1D6A5
:100C70008C2F0E94CA1ACDD6CF9108958C2F805EFA
:100C80008830D0F781E0C1FD84E0C0FD880FC2FD4F
:100C9000829537D6F0CF811539F0982F9450913A3C
:100CA00020F40E94D01AB5C60895982F905E98300F
:100CB000D8F7982F81E091FD84E090FD880F92FD98
:100CC000829525D6F0CF1F93CF93DF93182FEB019A
:100CD000BFDF209731F4812FDEDFDF91CF911F91AD
:100CE00008958FE99FE00197F1F700C00000219778
:100CF000F0CF60E570E0893311F060E070E0E3CFA1
:100D0000811511F0FED585C60895811511F0FFD526
:100D100080C60895A0E0B0E0E0E9F6E00C94D923A5
:100D20006C01D62FC72FFC011581068102950F702B
:100D3000DDD5E82E8115E9F0E12E1115D1F08C2FCB
:100D4000807F803461F08D2F805E883078F18C2F29
:100D5000807E803221F4D23048F1011539F1809142
:100D60001F0282FF23C082E070D6C0D591E08927A0
:100D7000E82E9C2F92959F70983009F4ABC0C0F478
:100D8000923030F1925F9F70923008F44BC0E114C2
:100D900009F4CBC0A7D580FDC8C0F60115829CD54B
:100DA00006D2C60170D198D50BD2BFC0E12CE1CFDD
:100DB000993009F4F6C09A5F9F70923040F7D23FA5
:100DC00009F0FCC08C2F8F711111F6C0F0D1AAC0B0
:100DD0000C2F0F70C03110F00295007F111581F0BB
:100DE000011549F08D2F805E883010F0D11105C0BB
:100DF000802F87D50ED68D2F33C0802F93D5FACF75
:100E00008D2F49DF011509F4C2CF8D2F805E883008
:100E100010F0D11103C0802F7AD502C0802F88D561
:100E2000F8D5B5CF8C2F8F70F82EC07FC03219F057
:100E3000F29480EFF822D13038F081F1111509F4E5
:100E400039C00115D1F0D7CF80911F0282FD11C0AA
:100E5000111541F0F11419F08F2D53D5DAD580E03A
:100E6000F7DE95CF80E017DFF11409F490CF8F2DD6
:100E7000D3CF111551F0013018F48F2D41DF87CFFA
:100E800009F085CF8F2D70D582CF011180CF8F2DA6
:100E90003CDF8F2D74D58F2D59D579CF111521F0C9
:100EA000063008F074CFE9CF053008F070CF8F2DF1
:100EB0002CDF6DCF0115D9F3D93349F48FEF97EEBD
:100EC00023E0815090402040E1F700C000008D2FCA
:100ED000E2DE5DCF8C2F837099F5111123C09D2F19
:100EE000929596959770990F990F4D2F4F70092EE7
:100EF00001C0440F0A94EAF78D2F8071D4FF07C018
:100F00002FE001C0220F9A95EAF7822F8095C695AF
:100F1000C695C370842BC23079F0C33079F0C130EC
:100F200049F029D10E94371A3DDECDB7DEB7E8E09F
:100F30000C94F5231CD1F6CF22D1F4CF16D1F2CFE9
:100F4000111531F1C0FFEECF9D2F929596959770B8
:100F5000990F990F4D2F4F70092E01C0440F0A941D
:100F6000EAF78D2F8071D4FF07C02FE001C0220F58
:100F70009A95EAF7822F8095C695C695C370842B03
:100F8000C23059F0C33059F0C13029F031D1CACF45
:100F9000823040F2D9CF28D1C5CF2ED1C3CFF9D0DE
:100FA000C1CFCF70111529F08C2F01D18D2FA8DE64
:100FB000B9CF8D2FAADE8C2F03D1B4CF58F4D03FF8
:100FC000B1F0D13F79F01115B9F1011591F18D2FE3
:100FD0003FDEA8CFD33FB1F0D43FA9F780911F02E5
:100FE00082FD18C08C2F8F71111531F3EFCE1115C2
:100FF00039F0053008F096CF8C2F8F71ECD092CF5E
:101000000630F8CF111521F08C2F8F71C9D08ACFFF
:10101000C5D088CF111529F063E08C2F8F71FED4D5
:1010200081CF81E012D5023008F47CCF82E00DD56B
:1010300079CF8C2F8F71CACE011571F0D93349F455
:101040008FEF97EE23E0815090402040E1F700C001
:1010500000008D2F20DE66CF8C2F8F71ADCF0F93C8
:101060001F93CF93DF93EC01688179818D8174D1D7
:101070008C01C6D079D0B801CE014CDEDF91CF9182
:101080001F910F910895CF93DF93EC018C8181150F
:1010900081F0CE01EEDC81110FC028D4811549F01A
:1010A0008D81811531F080911F0282FF02C082E0A4
:1010B000CCD4DF91CF910895CE01D1DFCE01C7DC32
:1010C000F8CF3ED4A6C40E94D61AFBCF28D4FBCFBB
:1010D000282F92959F70963099F060F4925F9F70E0
:1010E000923030F4203FB1F038F481E0283E38F0FF
:1010F00080E008959A5FF3CF81E0243FC9F7089517
:1011000091E0813F09F090E081E0283E08F080E026
:10111000892B089581E00895FC012481211521F097
:101120008081918110D1D4CF80E00895A6E0B0E015
:10113000ECE9F8E00C94DF232696E2E00C94FB2324
:10114000A7E0B0E0E6EAF8E00C94DF232796E2E0BF
:101150000C94FB230895FECF0895FDCF0895FADF88
:10116000FCDF80936C0108950895F9CF0895909164
:101170006C01892BF4CF90916C018923F0CF909171
:101180006C018927ECCFE6CF0895FDCF0895E2CF1B
:101190000895FDDFFADF80936B01089580E0F9CFB9
:1011A00091E001C0990F8A95EAF7892FF2CF21E0EB
:1011B00001C0220F8A95EAF780916B01822BE9CF5B
:1011C00021E001C0220F8A95EAF7822F8095909145
:1011D0006B018923DECF21E001C0220F8A95EAF757
:1011E00080916B018227D5CF90916B01892BD1CF54
:1011F00090916B018923CDCF90916B018927C9CF45
:101200000895CF93C1E061FDC4E060FDCC0F62FDA5
:10121000C29593E0769567959A95E1F79B01220F29
:10122000331F260F371F420F531FFA0140E050E0D3
:1012300090E06191DF019C01042E02C03695279554
:101240000A94E2F72695220B26272C2326272E9395
:101250004F5F5F4F4330510561F7CF910895A82F3D
:10126000A77023E0969587952A95E1F79C01220FB8
:10127000331F820F931F680F791FFB0140E050E07E
:1012800080E0219130E00A2E02C0369527950A941D
:10129000E2F72170042E01C0220F0A94EAF7822B94
:1012A0004F5F5F4F4330510561F70895262F95300A
:1012B00068F48A3058F4682F70E08AE0989F600DD7
:1012C000711D112446E551E0822F9BCF0895292FEF
:1012D000953058F48A3048F490E066E571E03AE0E1
:1012E000239F800D911D1124BACF80E00895CF92E5
:1012F000DF92FF920F931F93CF93DF936C010091C6
:101300006B0180916C01082BC3E0D0E010E0C801B4
:101310000C2E02C0959587950A94E2F780FD0CC0CB
:101320002197A8F7F12C8F2DDF91CF911F910F916D
:10133000FF90DF90CF900895FC2EB6018C2FDED564
:10134000019771F3F0CFCF93DF93EC01D0DFBE01B3
:10135000D5D5DF91CF9108951F93CF93DF93EB0104
:1013600090915501911531F0CB01EDDFDF91CF91D7
:101370001F910895811551F0CB01B9DF182F682F07
:10138000CE0194DFBE01812FB9D5F0CFCB019FDF15
:10139000182FF8CFE1E0F0E0DF0101C0AA0F6A9555
:1013A000EAF76A2FDF0101C0AA0F4A95EAF76A2B14
:1013B00001C0EE0F2A95EAF7962F9823961302C0E4
:1013C0008E2B0895E0958E230895242F462F682FA5
:1013D00080916B01DFDFDDCE0F931F9300916D01D4
:1013E00080916E01801303C01F910F91089587E0D3
:1013F000089FF0011124E159FE4F20813181428183
:1014000053816481758186819BDE0F5F1F4F07705A
:10141000E7CF2091A7013091A8014091A9015091F7
:10142000AA016091AB017091AC018091AD0188CEB1
:101430008091AD01803170F48091AC01811551F043
:10144000E0916D0120916E013091A8014091A701BA
:101450002E1301C00895BF0187E0E89FF001112419
:10146000DF01A159BE4F14968C911497811549F153
:1014700011968C911197831324C08C91841321C0F1
:1014800015968C91159781111CC012968D919D9186
:10149000A091A901B091AA018A1B9B0B883C9105E0
:1014A00080F48091AD018F7080618093AD01EB5825
:1014B000FE4F80818F708061808387EA91E0E3DD59
:1014C0008BCF6F5F7F4FFB01E770C2CFE0916D0163
:1014D00090916E01E91302C080E008959F0157E0EA
:1014E000E59FF0011124E159FE4F5181561306C0CA
:1014F0005081581303C05581541305C02F5F3F4FCF
:10150000F901E770E7CF81E008958F929F92AF9243
:10151000BF92DF92EF92FF920F931F93CF93DF93CF
:10152000CDB7DEB72D970FB6F894DEBF0FBECDBF97
:101530008C0186E0F801DE01189601900D928A95E3
:10154000E1F7F801F580848197EA892E91E0992EE0
:101550009091AB01911117C0811509F4EFC0F114FE
:1015600009F42EC1C801D8DD811509F429C187E02D
:10157000F801D40101900D928A95E1F7C40160DB76
:1015800057DF47DFDBC0E080A280B380D090AC01A2
:101590002091A9013091AA01A501421B530BD1143E
:1015A00009F4CFC0483C510508F09EC0811509F4EC
:1015B000C5C09091A80191808091AD01803108F063
:1015C00065C0991226C09091A7019E1122C0F1100A
:1015D00057C08F7080618093AD011BDF87EA91E077
:1015E00052DD8091AD01F8018683F12C8F2D2D966F
:1015F0000FB6F894DEBF0FBECDBFDF91CF911F9124
:101600000F91FF90EF90DF90BF90AF909F908F90E1
:101610000895F11035C040E0692D8E2D57DF40E070
:10162000692D8E2D53DFF82E8111DFCF88859985A6
:101630008ADE292F22952F70903450F49F7022302B
:1016400078F0911591F0F8019681903170F4CECF39
:101650002A5F2F70223070F0C80115DDFD2CC6CF37
:10166000911519F0811509F4C1CF805E883008F416
:10167000BDCFF2CF803F08F4B9CF815F8330F7CF81
:101680008091AD0181608093AD01AFCF991207C009
:101690009091A7019E1103C0F11409F473C0C80111
:1016A0003BDD811509F48CC0F11409F489C08091E7
:1016B000AD01803280F02091A7013091A8012983EB
:1016C0003A83AB82BC829091AB019D831E828F8353
:1016D000CE010196D8DC87E0F801A7EAB1E00190DD
:1016E0000D928A95E1F74CCF9091AD01903188F43D
:1016F000488559856A857B858C859D8517DD87EAB8
:1017000091E0C1DCF40187E011928A95E9F781DE6E
:101710006CCF811599F02091A80181812813BFCF4A
:101720008091A7018E11BBCFF110B9CF9683C8016C
:10173000AADCF40187E011928A95E9F7FF24F3947B
:1017400055CF483C510508F03EC08115B9F3F1145E
:10175000B9F19091A8018181981329C08091A701C6
:101760008E1125C08091AD0180FD18C08031B0F090
:101770008683807F803F39F08681982F907F905FAD
:101780008F70892B8683C8017EDC87E0F801A7EA89
:10179000B1E001900D928A95E1F7F3CE87E0F80170
:1017A000A7EAB1E001900D928A95E1F7C7CFC80191
:1017B000B3DC811190CF8091AD0181608093AD0148
:1017C000C80161DCBBCF488559856A857B858C85DE
:1017D0009D85ACDC97CFAEE0B0E0E1EFFBE00C9490
:1017E000DE23288739874A875B876C877D878E87CA
:1017F000CE0108968ADE6C85811599F0611539F065
:10180000288539854A855B857D858E8599DC809123
:101810006D0190916E0189133DC02E96E3E00C940A
:10182000FA2387E09E01285F3F4FF90127503109D5
:10183000D90101900D928A95E1F7611541F3A091CC
:101840006E018A2F90E08395877090E0AC01209123
:101850006D012417150691F097E09A9FD00111248D
:10186000A159BE4F9E012F5F3F4FF90101900D928C
:101870009A95E1F740936E01AFDDC9CF27DC109256
:101880006E0110926D01E7EAF1E087E011928A950E
:10189000E9F7BDCF17E0189FC001112481599E4F71
:1018A00034DE811509F4B9CFE0916D011E9FF0017E
:1018B0001124E159FE4F208131814281538164819D
:1018C000758186813DDC80916D0190916E0101965C
:1018D000877080936D019BCF8091B6018695869528
:1018E000869508958091B601877008959091B6010C
:1018F000977081E0911101C080E008958091C2014C
:1019000008959091C201982B9093C20108958095FB
:10191000982F8091C20189238093C201089510926B
:10192000C20108959091C101982B9093C10108952F
:101930008095982F8091C10189238093C1010895DA
:101940001092C10108950895FECF08959091B701B6
:10195000292F282329F0809589238093B701F4CF7C
:1019600008950895FECF08959091B801292F282356
:10197000281721F0982B9093B801F4CF08959091F7
:10198000B801292F282329F0809589238093B80155
:10199000E9CF08958091B801811521F01092B80126
:1019A00080E0E0CF08950F931F93CF93DF93809152
:1019B0000B0190910C018C01C091C2018091C10179
:1019C000C82B8091B801811529F0C82B0E947A1A82
:1019D0008111E0DFF801C083C0910B01D0910C01AF
:1019E00048E050E06EEA71E0CE010E942924892B84
:1019F00059F088E0FE01AEEAB1E001900D928A95BF
:101A0000E1F7CE010E94461ADF91CF911F910F910D
:101A10000895C9CF08950895FECF089590911F02AB
:101A200092FF0EC0982F990F990F990F962B9093B4
:101A3000B601BDDB8091B601869586958695ECCF83
:101A4000B6CB1092B60180E0E7CF9091B6018095B9
:101A500089238093B601282F277059F4891749F0FC
:101A600090911F0292FF05C0869586958695A8DB0A
:101A7000E8CF089590911F0292FB222720F92817A2
:101A800049F080FB92F990931F028EE192E045D0DD
:101A900082E0DBCF089580911F02002482FF03942F
:101AA000802DE8CF81E0E6CF80E0E4CF80E090E0D9
:101AB000BC01ADC380E090E0BC01A3D3F7CFA3E0AD
:101AC000B0E0E5E6FDE00C94DF2356D361D31B8242
:101AD000CE01039674D381E080936C017AD319828E
:101AE00084E18A83CE01019685D30E941219E2DF38
:101AF0002396E2E00C94FB23E2CF08954FC30895B0
:101B00003CD381110C94D91808954EC308955DC338
:101B100008955FC3089562C308956CC308957DC39B
:101B20000895A6E0B0E0E7E9FDE00C94DD230E9413
:101B3000011C8C018091C3019091C4018017910711
:101B400071F019821A820E94011CBC0149815A81DC
:101B500080E090E046D80093C3011093C40126961C
:101B6000E4E00C94F9230E940D1C6093CD01709366
:101B7000CE018093CF019093D0016093C9017093FF
:101B8000CA018093CB019093CC0108950E940D1C53
:101B90006093CD017093CE018093CF019093D001DB
:101BA0006093C5017093C6018093C7019093C801EB
:101BB000089508950895FDCF08950895FEDFFBCFA1
:101BC0000895FECF08950895FEDFFBCF84E790E1EE
:101BD0003ED3F0DFF3CF81E0089581E00895FBCF9D
:101BE0000895089508950895FCDFFCDFFCCF88DF99
:101BF000811101C081DF81ED91E087DF8EE192E00C
:101C00008ADF95D584DFB1DA80916B01BECA0E946C
:101C1000F81B0E941D1933D40E943202E8DF0E9493
:101C2000351A0E94D10525D4CFCFA6E0B0E0EBE174
:101C3000FEE00C94D323D1DF81110DC072DF0E942E
:101C4000361A8CD48111A2DF16D40E94D9052696AB
:101C5000EEE00C94EF230E94820324E1822E22E026
:101C6000922E740110E0F701C080D180812F0E9474
:101C700063041F5F153009F452C022E0E20EF11C2C
:101C8000C816D90681F38091D10181FD0E946C04B0
:101C9000A6DF682E10E0812F0E9463047C01F4010E
:101CA000A190B1904F018A159B0599F1A826BF24F8
:101CB00000E091E0C92ED12CC5018C219D21892BFA
:101CC00001F177247394C7018C219D21892B09F49C
:101CD000712C611489F0602F812F0E94631B811188
:101CE0000BC009831A830E94011CBC0149815A81DF
:101CF00081E0972D0E94F105472D602F812F0E94D2
:101D00007A1B0F5FCC0CDD1C0A30B1F6F401F292A5
:101D1000E2921F5F153009F0BECF25DF90CFC816C5
:101D2000D90609F0B0CF8ACF0F931F93CF93DF93DB
:101D3000E7D0EC01D23508F040C0D03508F0B3C090
:101D4000C83ED105F0F4C03ED10560F4C53AD105D6
:101D500078F4C430D10530F481E0219709F080E0B7
:101D6000C82FD0E0CE01DF91CF911F910F91089540
:101D7000CE018D5C9109D0654397A0F3C0E0D0E01F
:101D8000F1CFD03490F4D03208F0A0C0CE01915001
:101D90009F31A0F78D2F57D1082F8C2F90E0B0D016
:101DA000D02FDF71C82FD92BDDCF8C2F90E0A8D09A
:101DB000DF70C82FD92BD06AD5CFC03882E5D807BD
:101DC000B8F5C03682E5D80708F051C0C03482E5C6
:101DD000D807C8F4C03282E5D80708F042C08C2F7B
:101DE0008695869520E2829FC0011124C37021E070
:101DF00030E002C0220F331FCA95E2F7E901C82B79
:101E0000D92BDD68AFCF8C2F86958695877020E221
:101E1000829FC0011124C37021E030E002C0220F74
:101E2000331FCA95E2F7E901C82BD92BDC689ACF9A
:101E3000C03C82E5D80750F48C2F8F71C03AD24550
:101E400058F5982F84EF906AEC018CCFCE01805C1E
:101E50009245809708F092CFDC2FDF71C0EFD06AF7
:101E600081CF8C2F8F71D82FC1EFD06A7BCF8C2F71
:101E700086958695877020E2829FC0011124C370E9
:101E800021E030E002C0220F331FCA95E2F7E901DA
:101E9000C82BD92BDA6866CFD6D0982F80E09F71F7
:101EA000EC01D0625FCF8C2F8F71CDD053E0CC0F7F
:101EB000DD1F5A95E1F7DF70282F84FF04C090E101
:101EC000899F90011124C22FD0694CCF8D2F8F7123
:101ED000BAD0082F8C2F90E013D0302F3F71282FCD
:101EE000392B3062E9013ECF462F753020F46A303D
:101EF00010F4672F80C480E090E00895F5DF14CFE0
:101F0000803E9105D1F1C8F48133910509F481C077
:101F100048F48932910509F471C08A32910509F4B7
:101F20007FC0089589339105E1F082389105C9F0A9
:101F30008533910509F45DC00895843E9105D1F182
:101F400048F4823E910531F1833E910541F181EEE5
:101F500090E00895863E9105C1F1873E9105F1F12B
:101F6000089520911E02237009F064C020911F0281
:101F700023FF14C089E290E0089520911E0220FD05
:101F800045C030911F0230FF09C024FD24C083EEFC
:101F900090E0089520911E0222FDF7CF0895209130
:101FA0001E0222FD44C030911F0230FD43C024FFB9
:101FB000F5CF11C020911F0221FFF0CF80911E02AA
:101FC00084FD09C087EE90E0089520911E0223FF52
:101FD000E5CF24FFF7CF80E090E0089520911E0226
:101FE00023FD2BC030911F0231FFE1CF84EE90E042
:101FF000089520911E0225FFD1CFBCCF20911E0253
:1020000025FD1EC020911F0223FFC8CF89E390E069
:10201000089520911E0226FFC1CF8AE290E0089524
:1020200020911E0226FFBACF81E390E0089582EE50
:1020300090E0089580EE90E0089586EE90E0089597
:1020400085E390E0089590911E0292FF10C041E058
:10205000282F2471243009F040E031E0282F287126
:10206000283009F030E0431711F02CE0822793FF6D
:1020700010C041E0282F2471243109F040E031E004
:10208000282F2871283109F030E0431711F02CE097
:10209000822730911F0230FF10C051E0282F21719C
:1020A000213009F050E041E0282F2871283009F054
:1020B00040E0541711F029E0822731FF10C041E0C1
:1020C000282F2171213109F040E031E0282F2871BB
:1020D000283109F030E0431711F029E0822794FFFE
:1020E00002C083FD877E089580E00895CF939C0110
:1020F000205E3245C1E02032310538F4FB01C58154
:10210000C11103C08F710E948C058C2FCF9108954F
:102110009C01FB018581811599F02B359CE73907DE
:1021200069F02C359CE7390721F02A353C4721F02E
:102130000895B1DC80E00895B5DCFCCFB5DCFACFC2
:1021400081E008959C01FB018581811599F0213082
:102150009CE7390761F023309CE7390739F02115F6
:102160003C4749F40E94B10580E00895C7DC0E9415
:10217000B505FACF81E00895089580E090E00E94CF
:102180004E249C0181E0233E3E4F09F080E00895FB
:1021900063EE7EEF80E090E00C947C246FEF7FEFA5
:1021A00080E090E00C947C24CF93DF93EC0182E0FC
:1021B00090E00E9446248883DF91CF910895FC012E
:1021C000608182E090E00C94622483E090E00C94C3
:1021D0004624682F83E090E00C946224CF93DF9331
:1021E000EC0184E090E00E944E2488839983DF9183
:1021F000CF910895FC016081718184E090E00C949E
:102200007C24AB01BC018FE090E00C947424AB0102
:10221000BC0183E190E00C947424682F8EE090E080
:102220000C94622402CD08950E949B1B0E940B1EF9
:10223000CDDC0E94231EEBDC0E942C1E0E942F1E70
:10224000F1DF0E94451E0E94F31CCEDCF7CF809385
:102250004E0190934F0108950C946D1A08959C01BE
:1022600034572034310548F4FB012581211519F03C
:102270004AD080E0089558D0FCCF81E008958230A4
:1022800040F597E0899FF0011124E35FFE4F208124
:10229000A22FA295AF70AF5DB0E08C912F7041E09E
:1022A00050E0BA0101C0660F2A95EAF7262F209563
:1022B00028232C938081E82FE295EF70EE5DF0E00B
:1022C00090818F7001C0440F8A95EAF740954923A9
:1022D00040830895823048F497E0899FF0011124EB
:1022E000E35FFE4F80810C94B01C80E090E0089585
:1022F0008091D701811531F082ED91E00E94531A4F
:102300001092D7010895883070F421E001C0220FA7
:102310008A95EAF78091D201822B8093D20181E0E5
:102320008093D701E5CF0895883078F421E001C08B
:10233000220F8A95EAF720958091D20128232093D5
:10234000D20181E08093D701D3CF0895A0E0B0E01F
:10235000ECEAF1E10C94D923C82FCD01C23008F08A
:102360003FC08C2FB7DF27E0C29FE0011124C35F7D
:10237000DE4F0B811C816C01990FEE08FE2CC01AF8
:10238000D10AE108F108A1E8BFEF9601A7010E9478
:10239000CB2329813A8140E050E0201B310B4109D9
:1023A00051090E949623121613061406150684F48A
:1023B000AFE7B0E09601A7010E94BF232D813E81C7
:1023C00040E050E0201B310B410951090E94962347
:1023D00021388FEF3807480758073CF481E89FEF12
:1023E000CDB7DEB7E8E00C94F523C901DA018038F7
:1023F0009105A105B105A4F38FE790E0F1CF80919D
:102400000D018F3F11F080E03ADF809114018F3F82
:1024100011F081E034CF0895823080F4E82FF0E0AD
:10242000EE0FFF1FEE52FE4F8181928186179707B4
:1024300029F06183728381E08093D70108950F931F
:102440001F93CF930DE011E0C0E0F80180818F3F32
:1024500029F08C2F7BDFBC018C2FDEDF095F1F4F43
:102460008C2FC1E0813089F743DFCF911F910F910D
:102470000895C5CF0895E3CF0895ADCB0895E9ED54
:10248000F1E088E011928A95E9F7E5C0FC0122812C
:1024900030E02395237030E0938181E0921713069A
:1024A00009F080E008950F931F93CF93DF93EC0121
:1024B000162F042FEBDF811114C08A81FE01E80F73
:1024C000F11D912F00FB97F994838F5F83708A83AE
:1024D00088818F5F888381E0DF91CF911F910F9179
:1024E000089580E0F9CFFC01A38182818A17B1F0C1
:1024F000AE0FBF2FB11D14968C9187FB992790F9D1
:102500008F77DB018C93DA019C9383818F5F8370DB
:10251000838381818F5F818381E0089580E00895C6
:10252000462F682F89ED91E0BECFAB01BC0189ED4C
:1025300091E0D9CFCF93DF93D62F0E94AA04C82F62
:10254000811541F06AE070E08EE4D11101C08BE4A6
:102550000E9463068C2FDF91CF910895A2E0B0E036
:10256000E4EBF2E10C94DD238091D801811551F068
:102570001092D8018091DB018093DC018091D90118
:102580008093DA01A2D079DF182F811569F010E06D
:1025900004C06981182F8A81CDDFCE010196BC016C
:1025A0000196C3DF8111F5CF812F2296E4E00C94D0
:1025B000F9238FE891E00197F1F700C0000008953A
:1025C00020E9611101C024E93AB12F7081E001C016
:1025D000880F2A95EAF7982F909593239AB99BB183
:1025E000892B8BB9089520E9611101C024E989B1D3
:1025F00090E02F7002C0959587952A95E2F781703B
:1026000008950895CF93DF93C0E08091E101C8174A
:1026100050F0CFDFC0E08091E101C81760F0F1DF3A
:10262000DF91CF91089560E08C2FCADF61E08C2F9D
:10263000C7DFCF5FEACF60E08C2FD5DFD82F61E016
:102640008C2FD1DFEC2FF0E0ED51FE4F880F8D2B5A
:102650008083CF5FE0CF81E08093E101D3CF1F93F0
:10266000CF93DF93182F440F642BC82FD0E0DE01E7
:10267000AD51BE4FEC918E2F8370681711F1EE0FA4
:10268000EE0FE62BEC93EF70F0E0E15DFE4FCE51E4
:10269000DE4F80819881890F888384301CF060E050
:1026A000812F3EDF88818D3F1CF461E0812F38DF70
:1026B0008881982F990F990B64E070E00E94612344
:1026C0008883DF91CF911F910895CF93DF93C0E06E
:1026D0008091E101C81718F0DF91CF91089561E072
:1026E0008C2F81DFD82F60E08C2F7DDF4D2F682F5E
:1026F0008C2FB5DFCF5FECCF01CA089580E00E9438
:102700006304817008950E9482038FEF96E721E0B1
:10271000815090402040E1F700C000000E948203F9
:10272000EDDF811519F0E8DF0C943D1C0895EBCF27
:102730000895A1E0B0E0EFE9F3E10C94DB237C0124
:10274000FC0160817181828193818E010F5F1F4F37
:1027500040E050E09D019FD1F70180819181A281ED
:10276000B3810196A11DB11D80839183A283B383A0
:1027700089812196E6E00C94F72384E00895C7C090
:102780000895EFC008951F93CF93DF93BED0D0E09C
:10279000C0E010C0412F6C2F8D2F0E94B3049C010C
:1027A000412F6C2F8D2FDDD01F5F1A3099F7CF5F2F
:1027B000C53011F010E0EECFDF5FD43049F7DF9184
:1027C000CF911F9108950F931F938A019B0140E0C1
:1027D00050E0BC01CA01EBD01F910F9108950F93F7
:1027E0001F938A019B0140E050E0BC01CA0117D150
:1027F0001F910F910895843028F4653018F44A3001
:1028000008F485C080E090E0089580E108953ED10D
:10281000CB0108950F931F938A019B0140E050E084
:10282000BC01CA0138D11F910F9108950F931F93D6
:102830008A019B0140E050E0BC01CA0172D11F91A6
:102840000F91089563D09FC16F927F928F929F9254
:10285000BF92CF92DF92EF92FF920F931F93CF938D
:10286000DF9300D000D0CDB7DEB7B82E803118F599
:102870000DD161507109810991097E012FEFE21A92
:10288000F20A870121E030E040E050E004D1898184
:10289000811111C0FBD03B014C01E12CF12C6701EF
:1028A000B1101BC0C982DA82EB82FC8240E0B80121
:1028B00089E993E138D30F900F900F900F90DF913B
:1028C000CF911F910F91FF90EF90DF90CF90BF902D
:1028D0009F908F907F906F900895C301D401C81688
:1028E000D906EA06FB0639F321E030E040E050E08B
:1028F000B601C701D0D089819FEFC91AD90AE90A68
:10290000F90A8111EACFBA94CBCF089508950F93B5
:102910001F93CF93DF93843008F56530F8F44A3085
:10292000E8F4C42FD0E0CC0FDD1F94E1699FC00D07
:10293000D11D112494E6899FC00DD11D1124CE0113
:1029400089960E944624082FCE018A960E9446242A
:10295000902FDF91CF911F910F91089580E090E02B
:10296000F8CF1F93CF93DF93122F8430E0F46530BC
:10297000D0F44A30C0F4C42FD0E0CC0FDD1F24E1E6
:10298000629FC00DD11D112494E6899FC00DD11DF9
:102990001124632FCE0189960E946224612FCE01FB
:1029A0008A960E946224DF91CF911F9108958F92A1
:1029B0009F92AF92BF92CF92DF92EF92FF920F93CE
:1029C0001F936B017C012C0D3D1D4E1D5F1D4901A8
:1029D0005A01C814D904EA04FB0459F41F910F9159
:1029E000FF90EF90DF90CF90BF90AF909F908F902F
:1029F000089580E9C81681E0D806E104F10468F47E
:102A0000C60189960E944624F80181938F018FEFB9
:102A1000C81AD80AE80AF80ADCCF80E0F5CF8F920E
:102A20009F92AF92BF92CF92DF92EF92FF920F935D
:102A30001F936B017C012C0D3D1D4E1D5F1D490137
:102A40005A01C814D904EA04FB0459F41F910F91E8
:102A5000FF90EF90DF90CF90BF90AF909F908F90BE
:102A6000089580E9C81681E0D806E104F10430F445
:102A7000F8016081C60189960E9462240F5F1F4F92
:102A80008FEFC81AD80AE80AF80ADBCF67E472E0C9
:102A900080E090E008954F925F926F927F928F92C4
:102AA0009F92AF92BF92EF92FF920F931F93CF939B
:102AB000DF934B015C0129013A01E8017B0187E4C6
:102AC000E81A8EEFF80A00E010E0C201D3010817FF
:102AD00019071A061B0678F0DF91CF911F910F910D
:102AE000FF90EF90BF90AF909F908F907F906F90EE
:102AF0005F904F900895C401D501800F911FA11DD3
:102B0000B11D87349240A105B10548F4C701800F7B
:102B1000911F0E94462489930F5F1F4FD6CF80E0FC
:102B2000FACFA0E0B0E0E7E9F5E10C94D3236B0124
:102B30007C0149015A013801EB01C754DE4F8D0178
:102B4000C401D501081719071A061B0628F0CDB7CE
:102B5000DEB7EEE00C94EF23C601D701800F911F82
:102B6000A11DB11D87349240A105B10548F4F301C0
:102B7000E00FF11F6081CE01800F911F0E9462243F
:102B80000F5F1F4FDDCFA0E1B0E0E9ECF5E10C9461
:102B9000D123FE013196DF0180E11D928A95E9F78C
:102BA00005E210E097E4492E92E0592E612C712C39
:102BB0005201BA94A1949E2E8F2E6201730181E17D
:102BC00048165104610471041CF080E1C82ED12C18
:102BD000A601B501892D982D0E945324AC0CBD1C73
:102BE0000D2C000C00084C185D086008700801509E
:102BF000104019F76096E0E10C94ED23CF93DF933A
:102C0000EB0186319C4709F50E947E0C9D81911550
:102C100099F08A7A91E0811101C090E09093E401EB
:102C2000811541F085E3B6D40E94090D80E0DF9163
:102C3000CF91089589E2F7CF8091E401811519F0D1
:102C400085E3AED4F1CF89E2FCCF81E0F0CFCF9322
:102C5000DF93EC01FB018581811509F4CBC09E0156
:102C600030572332310508F0ABC08EE192E00E946C
:102C70008B0DFE01E150F047E232F10520F4EE57F2
:102C8000FB4D0C94B22380911E02816080931E0242
:102C900090C080911F02886080931F028AC080913B
:102CA0001E028260F3CF80911E028460EFCF80917C
:102CB0001E028860EBCF80911F028160EDCF809172
:102CC0001F028260E9CF80911E028061DFCF809178
:102CD0001E028062DBCF80911E028064D7CF0E94EB
:102CE000660880911E028068D1CF80911E028C60A0
:102CF000CDCF80911F028360CFCF80911E028E7F47
:102D0000C5CF80911F02877FC7CF80911E028D7F24
:102D1000BDCF80911E028B7FB9CF80911E02877F2D
:102D2000B5CF80911F028E7FB7CF80911F028D7F1C
:102D3000B3CF80911E028F7EA9CF80911E028F7D1E
:102D4000A5CF80911E028F7BA1CF0E946608809143
:102D50001E028F779BCF80911E02837F97CF809139
:102D60001F028C7F99CF90911E02892F8B7F92FF3B
:102D70008460877F92FF886089CF80911F02982F9F
:102D8000909590FB80F990FB81F986CF90911E027F
:102D9000892F8F7B96FF806479CF0E94660890917F
:102DA0001E02892F97FB87F9805870CF81E00E941F
:102DB0008F0D8EE192E00E948D0D0E94660880E0EA
:102DC000DF91CF91089580E0F2CF90911E02892F7C
:102DD0008F7E94FF80615ACF90911E02892F8E7F43
:102DE00090FF816053CF90911F02892F877F93FFBF
:102DF000886052CF81E0E4CFA0E0B0E0E2E0F7E10C
:102E00000C94D823E82FF0E0E45CFD4F9491B92EA8
:102E1000282F26952695269530E0F901E452FD4F9E
:102E2000E4908770F12C082E02C0F594E7940A9480
:102E3000E2F7F901E453FD4FC490D12C082E02C0F3
:102E4000D594C7940A94E2F724543D4FF9010491B4
:102E500010E002C0159507958A95E2F7C62FD0E0DD
:102E6000E0FC25C0C0FE06C086EE0E942806CE010A
:102E7000009759F5BE018B2D0E946306CE01009785
:102E800061F5C0FC32C0E0FE06C081EE0E944B0638
:102E9000CE010097C1F500FF05C08CE20E947906C3
:102EA0002097C9F5CDB7DEB7E9E00C94F42381EEA5
:102EB0000E942806CE010097A9F2EFE9FFE03197C2
:102EC000F1F700C000000197F6CFEFE9FFE031977E
:102ED000F1F700C000000197CBCFEFE9FFE0319799
:102EE000F1F700C000000197CACF86EE0E944B06A2
:102EF000CE01009741F2EFE9FFE03197F1F700C012
:102F000000000197F6CFEFE9FFE03197F1F700C03D
:102F100000000197BECF8FE99FE00197F1F700C055
:102F200000002197BDCFA0E0B0E0E9E9F7E10C9403
:102F3000D8238C017B01B42EC701F801099581309B
:102F4000A0F009F058C0C701F8010995C82F8130D9
:102F500089F4C701F80109950E9479068B2D90E04C
:102F6000009709F040C0C111E7CFCDB7DEB7E9E067
:102F70000C94F423823031F4C701F80109950E94C2
:102F80002806ECCF833031F4C701F80109950E947F
:102F90004B06E4CF843011F7C701F8010995C82F1B
:102FA000C12CD12CDAE08C2F8053990B8A309105FB
:102FB00068F0C114D10491F2EFE9FFE03197F1F725
:102FC00000C0000081E0C81AD108F3CFDC9D900159
:102FD000DD9D300D1124820F931F6C01C701F80194
:102FE0000995C82FE0CFEFE9FFE03197F1F700C076
:102FF00000000197B5CF6B2DFFDE9ECF0F931F937F
:10300000CF93DF93C42FD22FFC0185818115C9F0A6
:103010004093E701F6D38093E5019093E6018C2F6E
:10302000805E883048F481E0C1FD84E0C0FD880FF7
:10303000C2FD82950E948006DF91CF911F910F9172
:1030400008951091E701141333C08091E501909128
:10305000E60168D3883C910558F5CD2FC05E1D1759
:10306000C1F0812F805E883048F481E011FD84E05A
:1030700010FD880F12FD82950E948506C83048F425
:1030800081E0D1FD84E0D0FD880FD2FD82950E94C1
:103090008006802F0E94790681E0D1FD84E0D0FD7A
:1030A000880FD2FD8295C83038F60E948506C4CFBD
:1030B0008C2F805E883008F0BFCF81E0C1FD84E0B6
:1030C000C0FD880FC2FD8295F0CF0F93FC01CB01AC
:1030D000E851FC47E730F10588F5EC55FB4D0C94C1
:1030E000B22306E221EE41EE6AE17CE787DF80E071
:1030F0000F91089507E225EE45EE6BE17CE7F6CFF0
:1031000006E221EE40EE68E17CE7F0CF07E225EE33
:1031100044EE69E17CE7EACF06E221EE42EE6CE1A3
:103120007CE7E4CF07E225EE46EE6DE17CE7DECFFB
:1031300008E221E045EE6EE17CE7D8CFFB01858116
:1031400081111092E70181E0D3CFCF93DF938737CE
:103150002CE7920739F088379C47D1F081E0DF9166
:10316000CF910895FB018581811571F019D00E94DE
:10317000D7081CD0C82F17D0D82F12D04C2F6D2FA6
:103180000E94E50980E0EBCF0BD00E94E008F1CF70
:10319000FB018581811511F006D0E9CF04D0F5CF70
:1031A00080911D01089580911C01089580911B015B
:1031B0000895A3E0B0E0EFEDF8E10C94DF23AE0159
:1031C0004F5F5F4FCE010296BC01019600D18B810B
:1031D000863239F48A81823021F481E099819731F5
:1031E00009F080E081702396E2E00C94FB238115C6
:1031F00021F047E162E086E210C14FEF6FEF8FEF01
:10320000FBCF08950895CF92DF92EF92FF926B016A
:103210007C01F8DFB601C7011FD1FF90EF90DF906E
:10322000CF900895D3D080E0E2DF80E090E0BC0151
:10323000EADFA9DA07DB81E0DACFE3DF04D1E2DFFE
:10324000B8DF811101C0EECF089508959C01FB0104
:103250008581811549F0A90157574038510528F457
:10326000822FF2DA80E0089581E008950C949404AE
:10327000089580E008951F93CF93DF93EC01162FFC
:10328000F8DF811110C0E881E150E331C0F4F0E0D3
:10329000E555FB4D0C94B22319828CE08A83612F93
:1032A000CE010E942C11DF91CF911F910895898149
:1032B0008330C9F038F4813061F0823091F08FEFC3
:1032C0008883EDCF8430D9F71A821B821C821D823D
:1032D000E6CFA3D20E94B8236A837B838C839D832D
:1032E000DECFB1D0F7CF8A8190E0FE018530910525
:1032F000B4F63296118212820196F8CF898182301B
:1033000029F08530E1F68A81A0DFC9CF6A817B810F
:103310008C819D810E94B82376DFC1CF4B816A8169
:1033200089812DDA9827892798278C839D83B7CFA9
:103330002C813D813227232732274B816A81898165
:1033400020DAADCF20DAABCF612FCE018FDFA7CF50
:103350005CDA8983A4CF5BDA982789279827898349
:103360009A839DCF6B8170E089819A819827892704
:103370009827AE014C5F5F4F4DDA91CF6B8170E0C3
:1033800089819A81982789279827AE014C5F5F4FE2
:103390004DDA85CF57DA83CFF0D9DBCF6B8170E080
:1033A00089819A81982789279827AE014C5F5F4FC2
:1033B0000ADA75CF6B8170E089819A819827892715
:1033C0009827AE014C5F5F4F0ADA69CF0895EF92FC
:1033D000FF920F931F93CF93DF937C018B01EA0140
:1033E000892B31F085E290E00E944624F70180832A
:1033F0000115110531F086E290E00E944624F801A3
:103400008083209729F087E290E00E9446248883F9
:10341000CDB7DEB7E6E00C94F723CF93DF93C62F4A
:10342000D42F682F85E290E00E9462246C2F86E200
:1034300090E00E9462246D2F87E290E00E94622457
:10344000DF91CF91089588E290E00E944624682F92
:1034500070E080E090E0089588E290E00C946224AF
:103460008093E8019093E901089508950895E0910B
:10347000E801F091E901309739F00190F081E02DF9
:10348000309711F00995089580E00895E091E801E2
:10349000F091E901309731F00280F381E02D30970F
:1034A00009F009950895A3E0B0E0E9E5FAE10C948C
:1034B000DF23FC018091E8019091E901892B49F01B
:1034C0008181898383818A8380818B83CE01019668
:1034D0009DD32396E2E00C94FB23E091E801F09168
:1034E000E901309731F00284F385E02D309709F03F
:1034F0000995089540910B0150910C019A012E5F9E
:103500003F4F485F5F4F80E0F90190812F5F3F4F51
:1035100091118F5F42175307B9F70895811591F004
:1035200020910B0130910C01F9013296285F3F4F39
:103530009081981731F03196E217F307C9F780E0D0
:10354000089581E008959C01FC01329680E09FEF90
:103550004081461759F031969F3F19F4411101C03F
:10356000982F8F5F8630A1F79F3F09F40895290FA8
:10357000311D97FD3A95F90162830895FC01329659
:1035800008962191261302C0DF011E92E817F90761
:10359000C1F70895682F80910B0190910C01D3CF52
:1035A000682F80910B0190910C01E8CFE0910B0105
:1035B000F0910C01329686E011928A95E9F7089510
:1035C0000895FECF08958F5F8093210160911E01C1
:1035D00070911F018091200190912101F2CF83E031
:1035E0008093210160911E0170911F018091200143
:1035F00090912101E6CFE7CF089581E080932101EA
:1036000060911E0170911F01809120019091210114
:10361000D8CFF3CF089591E0811101C090E090934D
:10362000200160911E0170911F01809120019091F5
:103630002101C7CF80912001089580931F016091DF
:103640001E0170911F018091200190912101B9CF3D
:1036500080911F01089580931E0160911E01709159
:103660001F018091200190912101ABCF80911E011B
:10367000089508950895FECF089508950895F9CF07
:1036800008950F931F93CF93DF93F7DF0E94820378
:10369000F5DF0AEE11E0C0E0D0E08C2F0E94630459
:1036A0009C01F801819331938F0191E0232B09F460
:1036B00090E0D92BCF5FC53081F78D2FDF91CF916F
:1036C0001F910F910895E82FF0E0EE0FFF1FE651D4
:1036D000FE4F81E090E002C0880F991F6A95E2F7E3
:1036E000BC01808191816823792381E0672B09F4F3
:1036F00080E00895411115C0E82FF0E0EE0FFF1FA4
:10370000E651FE4F81E090E002C0880F991F6A9554
:10371000E2F78095909520813181822393238083E5
:1037200091830895CF93DF93EC016BD08C1B9D0B9D
:10373000DF91CF91089585B7806885BF85B7806890
:1037400085BF08951F921FB61F9211248F939F93D8
:10375000AF93BF938091F401811113C08091200237
:1037600090912102A0912202B09123024196A11DC5
:10377000B11D8093200290932102A0932202B09366
:103780002302BF91AF919F918F911F901FBE1F90F9
:10379000189580912802843031F10E94B905109269
:1037A000F40188E190E020E40FB6F894A8958093A6
:1037B00060000FBE2093600083B7817F846083BF69
:1037C00083B7816083BF7894889583B78E7F83BFEA
:1037D0000FB6F894A895809160008861809360008E
:1037E000109260000FBE08950E9466080C94BD05FB
:1037F00082E084BD93E095BD9AEF97BD80936E0003
:1038000008952FB7F8948091200290912102A09101
:103810002202B09123022FBF08952FB7F894609130
:1038200020027091210280912202909123022FBFE9
:10383000089578941F921FB61F9211248F939F931F
:10384000AF93BF938091200290912102A091220218
:10385000B09123020196A11DB11D80932002909387
:103860002102A0932202B0932302BF91AF919F91B6
:103870008F911F901FBE1F90189587E797E7809341
:1038800000089093010888E19AE00FB6F894A89593
:10389000809360000FBE90936000FFCF88E19AE0B4
:1038A0000FB6F894A895809360000FBE90936000C7
:1038B000FFCF803F09F188F4843901F140F485336A
:1038C000F9F08633F9F0843339F583E208958639C7
:1038D000D9F0873909F582E20895853FB9F030F4CF
:1038E000813FB1F0843FC1F484E00895863F91F0B8
:1038F000873F91F487E0089580E0089580E208957D
:1039000084E2089585E2089581E2089585E00895AE
:1039100081E0089586E008958FE1089596E89093F8
:103920007A00982F9072906890937B008F7190919D
:103930002201892B80937C0080917A00806480939F
:103940007A0080917A0086FDFCCF809178002091EA
:10395000790090917A009F7790937A00922F089542
:10396000A8DFDCCF0895089508959B01BA019091D6
:1039700028029430D9F48F708093E9009FEF8091F2
:10398000E80085FD06C085ED8A95F1F700009150AD
:10399000B1F78091E80085FF09C040E050E0C9011F
:1039A000E8D18091E8008E778093E8000895603236
:1039B00029F440E250E0BC0182E0D7CF0895CF93D4
:1039C000DF93EC0137DE48E050E0BE0181E0CDDF5F
:1039D00088E0FE01A5EFB1E001900D928A95E1F734
:1039E000DF91CF910895A0E2B0E0E8EFFCE1E7C6F7
:1039F000809128028430F1F483E08093E900809183
:103A0000E80082FF17C08091E80090E085FF07C0C2
:103A100040E050E0BD01CE010196F8D191E08091E7
:103A2000E8008B778093E800911521F060E2CE01E9
:103A3000019621DCA096E2E0DEC68091270281118A
:103A400007C072D3C2D38091E20084608093E20009
:103A50000895109227020895D0DD81E0DCCD6091B9
:103A6000240281E0611101C080E0B9CD909128026B
:103A700081E0943009F080E060912402BCCD42E006
:103A800061EC81E0CDD242E261EC82E0C9D242E257
:103A900060EC83E0C5D242E061EC84E0C1D2909159
:103AA000280281E0943009F080E0609124028BCDFF
:103AB00080912A02893081F148F4823009F496C05D
:103AC000833009F457C0813041F008958A3009F4F9
:103AD00080C08B3009F468C0089580912902813A32
:103AE00009F047C08091E800877F8093E8008091CB
:103AF0002D0290912E02892B59F060E080E090E039
:103B000070E0D1D18091E8008B778093E800089530
:103B100068E085EF91E0F4CF80912902813249F588
:103B200080912D0290912E02892B19F58091E80049
:103B3000877F8093E8008091E80082FF16C0209183
:103B4000F3008091F200922F029731F48091F100FE
:103B5000813011F0863019F48091F1006EDD809192
:103B6000E8008B778093E8008FC280912802811152
:103B7000E2CF089580912902813AD9F780912D02F0
:103B800090912E02892BA9F78091E800877F80937E
:103B9000E8008091E80080FFFCCF4CDD8093F100CD
:103BA0008091E8008E77DECF80912902813209F77B
:103BB00080912D0290912E02892BD9F68091E800F8
:103BC000877F8093E80060D280912B0224DD0C94E3
:103BD000660880912902813261F68091E800877F32
:103BE0008093E80051D280912C0235CD809129023A
:103BF000813A09F0BECF8091E800877F8093E8008A
:103C00008091E80080FFFCCF31DDC8CF43E050E079
:103C1000BC0184E0AACE84B7877F84BF0FB6F89436
:103C2000A895809160008861809360001092600088
:103C30000FBE80E890E00FB6F894809361009093F7
:103C400061000FBEE6CC70D2C0D2E2EEF0E080811F
:103C50008460808378941CC583E291E001CC8091DC
:103C60002802853029F480912802853011F0BCCDDE
:103C700008958FDD06DD8115B1F38091260281154F
:103C800091F361D00E946608EECF08959A014091A9
:103C90002F025091300200C0492F50E043305105AF
:103CA000D1F078F44130510509F448C04230510553
:103CB00071F48BE590E04AE253E0F90140835183CF
:103CC000089541325105E9F04232510539F180E061
:103CD00090E040E0F2CF482F50E0813061F0423078
:103CE000510561F0E6E2F3E04115510581F7849159
:103CF00090E0AF01E2CFE8E0F3E0F9CFECEEF2E0E4
:103D0000F6CF6330710518F7660F771FFB01E85B8C
:103D1000FE4F4081518189E090E0CFCF6330710543
:103D2000B0F6FB01EE0FFF1FEE5BFE4F40815181AD
:103D3000615C7E4FFB01808190E0BFCF82E190E02B
:103D400045E853E0BACF80E189BD82E189BD09B47D
:103D500000FEFDCF8091D8008F7D8093D8008091A8
:103D6000E00082608093E0008091E00081FDFCCF64
:103D70000895AF92BF92CF92DF92FF920F931F935D
:103D8000CF93DF936C01EB018A019DD1F82E811155
:103D900023C00115110539F0F80180819181C81BFC
:103DA000D90BC80ED91EA12CB12C2097A9F0809157
:103DB000E80085FD21C08091E8008E778093E800BF
:103DC00001151105A1F0F801808191818A0D9B1DDB
:103DD0008083918385E0F82E8F2DDF91CF911F9105
:103DE0000F91FF90DF90CF90BF90AF9008956BD16F
:103DF0008115E9F2F82EF0CFF60181916F018093E1
:103E0000F10021978FEFA81AB80ACFCFAF92BF92D7
:103E1000CF92DF92FF920F931F93CF93DF936C01AA
:103E2000EB018A0150D1F82E811123C00115110533
:103E300039F0F80180819181C81BD90BC80ED91EB9
:103E4000A12CB12C2097A9F08091E80085FD21C01C
:103E50008091E8008B778093E80001151105A1F0AF
:103E6000F801808191818A0D9B1D8083918385E07B
:103E7000F82E8F2DDF91CF911F910F91FF90DF9042
:103E8000CF90BF90AF9008951ED18115E9F2F82E22
:103E9000F0CF8091F100F60181936F0121978FEFB0
:103EA000A81AB80ACFCFFC0120912F02309130021E
:103EB0002617370720F06115710569F09B0190E026
:103EC0002115310571F491110CC08091E80082FF39
:103ED00038C080E008959091E8009E779093E800C4
:103EE000EDCF809128028115C1F18530C1F180911B
:103EF000E80083FD30C08091E80082FDE6CF80912C
:103F0000E80080FFDDCF8091F3004091F200582F50
:103F10002115310519F04830510558F091E048302D
:103F2000510509F090E04091E8004E774093E80099
:103F3000C7CF81918093F100215031094F5F5F4FCE
:103F4000E7CF80912802811541F0853041F08091C2
:103F5000E80083FFBACF81E0089582E0089583E00E
:103F60000895FC0120912F02309130022617370767
:103F700020F06115710569F09B0190E02115310574
:103F800071F491110CC08091E80082FF39C080E08B
:103F900008958091E8008E778093E800EDCF8091BE
:103FA00028028115C9F18530C9F18091E80083FDAF
:103FB00031C08091E80082FDE6CF8091E80080FF6B
:103FC000DDCF8091F3004091F200582F211531058B
:103FD00019F04830510558F091E04830510509F08A
:103FE00090E08091E8008E778093E800C7CF8491BD
:103FF0008093F1003196215031094F5F5F4FE6CF3A
:1040000080912802811541F0853041F08091E800CF
:1040100083FFB9CF81E0089582E0089583E0089599
:10402000982F973028F08F708093E90081E00895F1
:104030009093E900242F762F50E0981731F070917B
:10404000EC002091ED005091F00021FD02C09F5F37
:10405000E8CF3091EB003E7F3093EB003091ED00E4
:104060003D7F3093ED003091EB0031603093EB00F9
:104070007093EC002093ED005093F0002091EE003F
:1040800027FDE5CF80E008958091290287FF13C0C6
:104090008091E80082FF06C08091E8008B778093D2
:1040A000E8000895809128028111F2CF089580914F
:1040B00028028115D9F38091E80080FFF8CF809124
:1040C000E8008E77ECCF2091E4003091E50095E692
:1040D000A9012091EC00822F817020FF06C0809101
:1040E000E80080FF06C080E008952091E80022FDEE
:1040F0001AC080912802811589F0853089F080915D
:10410000EB0085FD0FC02091E4003091E5004217DF
:104110005307F9F29150E1F684E0089582E00895A2
:1041200083E0089581E008955FD066D0E0EEF0E08E
:10413000808181608083E8ED80818F77808319BCE6
:10414000A7EDB0E08C918E7F8C9380818F7E8083F1
:10415000109227020895CF93DF9346D04DD0C8ED3B
:10416000D0E088818F778883888180688883888180
:104170008F7D888319BC109228021092240210921D
:10418000260210922502E0EEF0E080818B7F808392
:1041900088818160888342E060E080E041DFE1EE79
:1041A000F0E080818E7F8083E2EE80818160808379
:1041B000808188608083E0EE80818E7F808388812B
:1041C00080618883DF91CF910895E8EDF0E08081F0
:1041D0008F7E8083E7ED80818160808384E082BF71
:1041E00081E080932702B7CFE8EDF0E080818E7FF9
:1041F00080831092E20008951092DA001092E1009C
:1042000008951F920F920FB60F9211242F933F9390
:104210004F935F936F937F938F939F93AF93BF93CE
:10422000EF93FF938091E10082FF0AC08091E2004A
:1042300082FF06C08091E1008B7F8093E10027D24E
:104240008091DA0080FF18C08091D80080FF14C0F0
:104250008091DA008E7F8093DA008091D90080FF10
:104260008FC080E189BD82E189BD09B400FEFDCF28
:1042700081E080932802E1DB8091E10080FF18C09B
:104280008091E20080FF14C08091E2008E7F8093D5
:10429000E2008091E20080618093E2008091D8008A
:1042A00080628093D80019BC85E080932802D7DB18
:1042B0008091E10084FF28C08091E20084FF24C047
:1042C00080E189BD82E189BD09B400FEFDCF809106
:1042D000D8008F7D8093D8008091E1008F7E8093FD
:1042E000E1008091E2008F7E8093E2008091E20005
:1042F00081608093E20080912402811509F445C019
:1043000084E080932802B2DB8091E10083FF27C024
:104310008091E20083FF23C08091E100877F80933A
:10432000E10082E080932802109224028091E10053
:104330008E7F8093E1008091E2008E7F8093E20087
:104340008091E20080618093E20042E060E080E0E2
:1043500067DE8091F00088608093F0007DDBFF9144
:10436000EF91BF91AF919F918F917F916F915F91ED
:104370004F913F912F910F900FBE0F901F90189566
:1043800019BC1092280265DB77CF8091E30087FF8C
:1043900002C083E0B6CF81E0B4CF1F920F920FB678
:1043A0000F9211241F932F933F934F935F936F931B
:1043B0007F938F939F93AF93BF93CF93DF93EF93AD
:1043C000FF93E9EEF0E080811091EC008F7010FB1C
:1043D000112717F9182B1082C0EFD0E08881877F52
:1043E000888378941CD0E9EEF0E0108288818860A0
:1043F00088831F701083FF91EF91DF91CF91BF9160
:10440000AF919F918F917F916F915F914F913F916C
:104410002F911F910F900FBE0F901F901895AAE239
:10442000B0E0E4E1F2E2CAC189E292E0FC01019667
:104430002091F100208322E081339207B9F738DB25
:104440008091E80083FF37C08091290290912A0271
:104450009A3088F5E92FF0E0E254FB4D83C18038B3
:1044600089F0823841F580912D028F70873018F5E0
:104470008093E9008091EB0085FB882780F91092FA
:10448000E90006C080912602880F90912502892BB1
:104490009091E800977F9093E8008093F10010924C
:1044A000F1008091E8008E7722C0811115C08091C3
:1044B0002B02813001F18091E80083FF0AC08091D6
:1044C000E800877F8093E8008091EB008062809312
:1044D000EB00AA96E3E08EC1823069F780912B024F
:1044E000811579F01092E9008091E800877F809330
:1044F000E800CADDE0CF933009F080E08093260227
:10450000F1CF80912D028F70282F2150263098F600
:104510008093E9002091EB0020FFE4CF933031F449
:104520008091EB0080628093EB00DCCF9091EB00F8
:1045300090619093EB0021E001C0220F8A95EAF789
:104540002093EA001092EA008091EB008860EBCFA4
:104550008111B1CF80912B028F77182F8091E300CA
:104560008078812B8093E3008091E800877F80939F
:10457000E8008ADD8091E80080FFFCCF8091E300B5
:1045800080688093E30083E0111101C082E0809392
:10459000280291CF8058823008F08DCF80912B0275
:1045A00090912C028C3D23E0920789F583E08A8369
:1045B0008AE289834FB7F894DE01139620E03EE04B
:1045C00051E2E32FF0E050935700849120FF03C0A5
:1045D00082958F703F5F8F708A30B8F0895C8D93C1
:1045E0001D922F5F243169F74FBF8091E800877FCC
:1045F0008093E8006AE270E0CE01019654DC80917D
:10460000E8008B778093E80056CF805DE8CF60911B
:104610002D0270912E02AE014F5F5F4F37DBBC0160
:10462000892B09F448CF9091E800977F9093E80098
:1046300089819A8196DCE3CF803809F03CCF809164
:10464000E800877F8093E800809124028093F10046
:1046500028CF811130CF90912B02923008F02BCFD0
:104660008091E800877F8093E800909324020CDD1E
:1046700080912402811529F084E080932802FFD9DB
:104680001ACF8091E30087FDF7CF81E0F6CF089540
:10469000CF9380912802811591F08091E900C0911B
:1046A000EC008F70C0FBCC27C7F9C82B1092E90033
:1046B0008091E80083FDB3DECF70C093E900CF9115
:1046C000089597FB072E16F4009406D077FD08D0C6
:1046D000ACD007FC05D03EF4909581959F4F08958E
:1046E000709561957F4F0895A1E21A2EAA1BBB1BFE
:1046F000FD010DC0AA1FBB1FEE1FFF1FA217B307AE
:10470000E407F50720F0A21BB30BE40BF50B661FC3
:10471000771F881F991F1A9469F760957095809587
:1047200090959B01AC01BD01CF010895052E97FB2B
:1047300016F400940FD057FD05D0D6DF07FC02D049
:1047400046F408C050954095309521953F4F4F4F06
:104750005F4F089590958095709561957F4F8F4F2D
:104760009F4F0895EE0FFF1F0590F491E02D0994DF
:10477000692796276927782787277827089546D0BD
:10478000A59F900DB49F900DA49F800D911D1124A5
:104790000895B7FFF4CFF3DF821B930B08952F9298
:1047A0003F924F925F926F927F928F929F92AF92C1
:1047B000BF92CF92DF92EF92FF920F931F93CF930E
:1047C000DF93CDB7DEB7CA1BDB0B0FB6F894DEBFA5
:1047D0000FBECDBF09942A88398848885F846E84CB
:1047E0007D848C849B84AA84B984C884DF80EE8015
:1047F000FD800C811B81AA81B981CE0FD11D0FB61E
:10480000F894DEBF0FBECDBFED010895A29FB001A9
:10481000B39FC001A39F700D811D1124911DB29FF4
:10482000700D811D1124911D0895AA1BBB1B51E120
:1048300007C0AA1FBB1FA617B70710F0A61BB70B10
:10484000881F991F5A95A9F780959095BC01CD01B5
:104850000895FB01DC0104C08D910190801921F4C1
:1048600041505040C8F7881B990B0895DC01CB01DB
:10487000FC01F999FECF06C0F2BDE1BDF89A319670
:1048800000B40D9241505040B8F70895F999FECF09
:1048900092BD81BDF89A992780B50895A8E1B0E04E
:1048A00042E050E0E5CFDC01A40FB51F415050407D
:1048B00040F0CB01840F951F2E9105D04150504000
:1048C000D8F70895262FF999FECF92BD81BDF89AA9
:1048D000019700B4021639F01FBA20BD0FB6F89444
:1048E000FA9AF99A0FBE08950396272FECDFEADFB4
:1048F000252FE9DF242FE7CF0196272FE4DFE2CF32
:10490000F894FFCF7D16EC1685164F1653168916B0
:1049100057168D1699166316E51667169D166B16B3
:10492000A116C6166F16A516CD167516AB16B316BC
:104930005B1691165F1695167916AF16BD16D6162C
:10494000E31649168116F3168018861871187A181E
:104950008C18921898184C1957197E198E19981995
:10496000A219A419A419A4195F195F19A819AB19E0
:10497000B219BE19CA19CC19CE19DA192F2255222B
:104980005B2255225B22A822CA225B221C232923F8
:10499000F7F63534C6976636323331B901FF000079
:1049A0003F007F00FF00003F007F00030201000086
:1049B000010040281BDF1CB31CB41CB21CD71C0018
:1049C000FF0100010000FFFF0000010001FF0044A3
:0E49D000222AE3039703B9033C035503750342
:00000001FF
